{
  "_format": "hh-sol-artifact-1",
  "contractName": "Marketplace",
  "sourceName": "contracts/Marketplace.sol",
  "abi": [
    {
      "inputs": [],
      "stateMutability": "nonpayable",
      "type": "constructor"
    },
    {
      "anonymous": false,
      "inputs": [
        {
          "indexed": false,
          "internalType": "uint256",
          "name": "itemId",
          "type": "uint256"
        },
        {
          "indexed": false,
          "internalType": "address",
          "name": "nftContract",
          "type": "address"
        },
        {
          "indexed": false,
          "internalType": "uint256",
          "name": "tokenId",
          "type": "uint256"
        },
        {
          "indexed": false,
          "internalType": "address",
          "name": "seller",
          "type": "address"
        },
        {
          "indexed": false,
          "internalType": "uint256",
          "name": "price",
          "type": "uint256"
        }
      ],
      "name": "MarketItemListed",
      "type": "event"
    },
    {
      "anonymous": false,
      "inputs": [
        {
          "indexed": false,
          "internalType": "uint256",
          "name": "itemId",
          "type": "uint256"
        },
        {
          "indexed": false,
          "internalType": "address",
          "name": "nftContract",
          "type": "address"
        },
        {
          "indexed": false,
          "internalType": "uint256",
          "name": "tokenId",
          "type": "uint256"
        },
        {
          "indexed": false,
          "internalType": "address",
          "name": "seller",
          "type": "address"
        },
        {
          "indexed": false,
          "internalType": "uint256",
          "name": "price",
          "type": "uint256"
        }
      ],
      "name": "MarketItemUnlisted",
      "type": "event"
    },
    {
      "inputs": [
        {
          "internalType": "uint256",
          "name": "itemId",
          "type": "uint256"
        }
      ],
      "name": "buyNFT",
      "outputs": [],
      "stateMutability": "nonpayable",
      "type": "function"
    },
    {
      "inputs": [],
      "name": "fetchAllNFTs",
      "outputs": [
        {
          "components": [
            {
              "internalType": "uint256",
              "name": "itemId",
              "type": "uint256"
            },
            {
              "internalType": "address",
              "name": "nftContract",
              "type": "address"
            },
            {
              "internalType": "uint256",
              "name": "tokenId",
              "type": "uint256"
            },
            {
              "internalType": "address",
              "name": "seller",
              "type": "address"
            },
            {
              "internalType": "uint256",
              "name": "price",
              "type": "uint256"
            }
          ],
          "internalType": "struct Marketplace.MarketItem[]",
          "name": "",
          "type": "tuple[]"
        }
      ],
      "stateMutability": "view",
      "type": "function"
    },
    {
      "inputs": [
        {
          "internalType": "uint256",
          "name": "itemId",
          "type": "uint256"
        }
      ],
      "name": "fetchIndividualNFT",
      "outputs": [
        {
          "components": [
            {
              "internalType": "uint256",
              "name": "itemId",
              "type": "uint256"
            },
            {
              "internalType": "address",
              "name": "nftContract",
              "type": "address"
            },
            {
              "internalType": "uint256",
              "name": "tokenId",
              "type": "uint256"
            },
            {
              "internalType": "address",
              "name": "seller",
              "type": "address"
            },
            {
              "internalType": "uint256",
              "name": "price",
              "type": "uint256"
            }
          ],
          "internalType": "struct Marketplace.MarketItem",
          "name": "",
          "type": "tuple"
        }
      ],
      "stateMutability": "view",
      "type": "function"
    },
    {
      "inputs": [],
      "name": "fetchMyNFTs",
      "outputs": [
        {
          "components": [
            {
              "internalType": "uint256",
              "name": "itemId",
              "type": "uint256"
            },
            {
              "internalType": "address",
              "name": "nftContract",
              "type": "address"
            },
            {
              "internalType": "uint256",
              "name": "tokenId",
              "type": "uint256"
            },
            {
              "internalType": "address",
              "name": "seller",
              "type": "address"
            },
            {
              "internalType": "uint256",
              "name": "price",
              "type": "uint256"
            }
          ],
          "internalType": "struct Marketplace.MarketItem[]",
          "name": "",
          "type": "tuple[]"
        }
      ],
      "stateMutability": "view",
      "type": "function"
    },
    {
      "inputs": [
        {
          "internalType": "address",
          "name": "nftContract",
          "type": "address"
        },
        {
          "internalType": "uint256",
          "name": "tokenId",
          "type": "uint256"
        },
        {
          "internalType": "uint256",
          "name": "price",
          "type": "uint256"
        }
      ],
      "name": "list",
      "outputs": [],
      "stateMutability": "nonpayable",
      "type": "function"
    },
    {
      "inputs": [
        {
          "internalType": "uint256",
          "name": "itemId",
          "type": "uint256"
        }
      ],
      "name": "unlistItem",
      "outputs": [],
      "stateMutability": "nonpayable",
      "type": "function"
    }
  ],
  "bytecode": "0x608060405234801561001057600080fd5b5060016000819055506000600181905550611fe2806100306000396000f3fe608060405234801561001057600080fd5b50600436106100625760003560e01c8063202e3740146100675780633c415853146100855780633f0e317b146100b557806351ed8288146100d35780635a599da8146100ef578063dda342bb1461010b575b600080fd5b61006f610127565b60405161007c91906119a2565b60405180910390f35b61009f600480360381019061009a9190611616565b6104d7565b6040516100ac9190611ac6565b60405180910390f35b6100bd610643565b6040516100ca91906119a2565b60405180910390f35b6100ed60048036038101906100e89190611616565b6108d2565b005b61010960048036038101906101049190611616565b610e60565b005b6101256004803603810190610120919061159e565b6110e7565b005b60606000806000600190505b60015481116101f857600115156003600083815260200190815260200160002060009054906101000a900460ff1615151480156101d157503373ffffffffffffffffffffffffffffffffffffffff166002600083815260200190815260200160002060030160009054906101000a900473ffffffffffffffffffffffffffffffffffffffff1673ffffffffffffffffffffffffffffffffffffffff16145b156101e55782806101e190611d6a565b9350505b80806101f090611d6a565b915050610133565b506102376040518060400160405280600d81526020017f746f74616c206974656d733a2000000000000000000000000000000000000000815250611394565b6102408261142d565b60008267ffffffffffffffff811115610282577f4e487b7100000000000000000000000000000000000000000000000000000000600052604160045260246000fd5b6040519080825280602002602001820160405280156102bb57816020015b6102a86114ef565b8152602001906001900390816102a05790505b5090506000600190505b60015481116104cd57600115156003600083815260200190815260200160002060009054906101000a900460ff16151514801561036357503373ffffffffffffffffffffffffffffffffffffffff166002600083815260200190815260200160002060030160009054906101000a900473ffffffffffffffffffffffffffffffffffffffff1673ffffffffffffffffffffffffffffffffffffffff16145b156104ba5760026000600260008481526020019081526020016000206000015481526020019081526020016000206040518060a0016040529081600082015481526020016001820160009054906101000a900473ffffffffffffffffffffffffffffffffffffffff1673ffffffffffffffffffffffffffffffffffffffff1673ffffffffffffffffffffffffffffffffffffffff168152602001600282015481526020016003820160009054906101000a900473ffffffffffffffffffffffffffffffffffffffff1673ffffffffffffffffffffffffffffffffffffffff1673ffffffffffffffffffffffffffffffffffffffff16815260200160048201548152505082848151811061049f577f4e487b7100000000000000000000000000000000000000000000000000000000600052603260045260246000fd5b60200260200101819052506001836104b79190611ba4565b92505b80806104c590611d6a565b9150506102c5565b5080935050505090565b6104df6114ef565b60015482111580156105155750600115156003600084815260200190815260200160002060009054906101000a900460ff161515145b610554576040517f08c379a000000000000000000000000000000000000000000000000000000000815260040161054b90611aa6565b60405180910390fd5b600260008381526020019081526020016000206040518060a0016040529081600082015481526020016001820160009054906101000a900473ffffffffffffffffffffffffffffffffffffffff1673ffffffffffffffffffffffffffffffffffffffff1673ffffffffffffffffffffffffffffffffffffffff168152602001600282015481526020016003820160009054906101000a900473ffffffffffffffffffffffffffffffffffffffff1673ffffffffffffffffffffffffffffffffffffffff1673ffffffffffffffffffffffffffffffffffffffff1681526020016004820154815250509050919050565b60606000806000600190505b60015481116106a757600115156003600083815260200190815260200160002060009054906101000a900460ff161515141561069457828061069090611d6a565b9350505b808061069f90611d6a565b91505061064f565b5060008267ffffffffffffffff8111156106ea577f4e487b7100000000000000000000000000000000000000000000000000000000600052604160045260246000fd5b60405190808252806020026020018201604052801561072357816020015b6107106114ef565b8152602001906001900390816107085790505b5090506000600190505b60015481116108c857600115156003600083815260200190815260200160002060009054906101000a900460ff16151514156108b55760026000600260008481526020019081526020016000206000015481526020019081526020016000206040518060a0016040529081600082015481526020016001820160009054906101000a900473ffffffffffffffffffffffffffffffffffffffff1673ffffffffffffffffffffffffffffffffffffffff1673ffffffffffffffffffffffffffffffffffffffff168152602001600282015481526020016003820160009054906101000a900473ffffffffffffffffffffffffffffffffffffffff1673ffffffffffffffffffffffffffffffffffffffff1673ffffffffffffffffffffffffffffffffffffffff16815260200160048201548152505082848151811061089a577f4e487b7100000000000000000000000000000000000000000000000000000000600052603260045260246000fd5b60200260200101819052506001836108b29190611ba4565b92505b80806108c090611d6a565b91505061072d565b5080935050505090565b60026000541415610918576040517f08c379a000000000000000000000000000000000000000000000000000000000815260040161090f90611a86565b60405180910390fd5b60026000819055506002600082815260200190815260200160002060030160009054906101000a900473ffffffffffffffffffffffffffffffffffffffff1673ffffffffffffffffffffffffffffffffffffffff163373ffffffffffffffffffffffffffffffffffffffff1614156109c5576040517f08c379a00000000000000000000000000000000000000000000000000000000081526004016109bc90611a46565b60405180910390fd5b60006002600083815260200190815260200160002060040154905060006002600084815260200190815260200160002060020154905060006002600085815260200190815260200160002060010160009054906101000a900473ffffffffffffffffffffffffffffffffffffffff16905082737ceb23fd6bc0add59e62ac25578270cff1b9f61973ffffffffffffffffffffffffffffffffffffffff166370a08231336040518263ffffffff1660e01b8152600401610a849190611927565b60206040518083038186803b158015610a9c57600080fd5b505afa158015610ab0573d6000803e3d6000fd5b505050506040513d601f19601f82011682018060405250810190610ad4919061163f565b1015610b15576040517f08c379a0000000000000000000000000000000000000000000000000000000008152600401610b0c90611a26565b60405180910390fd5b6000737ceb23fd6bc0add59e62ac25578270cff1b9f61973ffffffffffffffffffffffffffffffffffffffff1663dd62ed3e33306040518363ffffffff1660e01b8152600401610b66929190611942565b60206040518083038186803b158015610b7e57600080fd5b505afa158015610b92573d6000803e3d6000fd5b505050506040513d601f19601f82011682018060405250810190610bb6919061163f565b905083811015610bfb576040517f08c379a0000000000000000000000000000000000000000000000000000000008152600401610bf290611a06565b60405180910390fd5b60006064605f86610c0c9190611c2b565b610c169190611bfa565b9050737ceb23fd6bc0add59e62ac25578270cff1b9f61973ffffffffffffffffffffffffffffffffffffffff166323b872dd33600260008a815260200190815260200160002060030160009054906101000a900473ffffffffffffffffffffffffffffffffffffffff16846040518463ffffffff1660e01b8152600401610c9f9392919061196b565b602060405180830381600087803b158015610cb957600080fd5b505af1158015610ccd573d6000803e3d6000fd5b505050506040513d601f19601f82011682018060405250810190610cf191906115ed565b50737ceb23fd6bc0add59e62ac25578270cff1b9f61973ffffffffffffffffffffffffffffffffffffffff166323b872dd337332362f1fc149ce0b5c2b6cce6aa70628012674cd8489610d449190611c85565b6040518463ffffffff1660e01b8152600401610d629392919061196b565b602060405180830381600087803b158015610d7c57600080fd5b505af1158015610d90573d6000803e3d6000fd5b505050506040513d601f19601f82011682018060405250810190610db491906115ed565b508273ffffffffffffffffffffffffffffffffffffffff166323b872dd3033876040518463ffffffff1660e01b8152600401610df29392919061196b565b600060405180830381600087803b158015610e0c57600080fd5b505af1158015610e20573d6000803e3d6000fd5b5050505060006003600088815260200190815260200160002060006101000a81548160ff0219169083151502179055505050505050600160008190555050565b60026000541415610ea6576040517f08c379a0000000000000000000000000000000000000000000000000000000008152600401610e9d90611a86565b60405180910390fd5b60026000819055503373ffffffffffffffffffffffffffffffffffffffff166002600083815260200190815260200160002060030160009054906101000a900473ffffffffffffffffffffffffffffffffffffffff1673ffffffffffffffffffffffffffffffffffffffff1614610f52576040517f08c379a0000000000000000000000000000000000000000000000000000000008152600401610f4990611a66565b60405180910390fd5b60006002600083815260200190815260200160002060030160009054906101000a900473ffffffffffffffffffffffffffffffffffffffff16905060006002600084815260200190815260200160002060040154905060006002600085815260200190815260200160002060020154905060006002600086815260200190815260200160002060010160009054906101000a900473ffffffffffffffffffffffffffffffffffffffff1690508073ffffffffffffffffffffffffffffffffffffffff166323b872dd3033856040518463ffffffff1660e01b815260040161103b9392919061196b565b600060405180830381600087803b15801561105557600080fd5b505af1158015611069573d6000803e3d6000fd5b5050505060006003600087815260200190815260200160002060006101000a81548160ff0219169083151502179055507f9f3894762b209368332867576b30522ac2e82bd45fb5a5f59426812b77191aa285828487876040516110d0959493929190611afc565b60405180910390a150505050600160008190555050565b6002600054141561112d576040517f08c379a000000000000000000000000000000000000000000000000000000000815260040161112490611a86565b60405180910390fd5b600260008190555060008111611178576040517f08c379a000000000000000000000000000000000000000000000000000000000815260040161116f906119e6565b60405180910390fd5b6001600081548092919061118b90611d6a565b9190505550600060015490506040518060a001604052808281526020018573ffffffffffffffffffffffffffffffffffffffff1681526020018481526020013373ffffffffffffffffffffffffffffffffffffffff16815260200183815250600260008381526020019081526020016000206000820151816000015560208201518160010160006101000a81548173ffffffffffffffffffffffffffffffffffffffff021916908373ffffffffffffffffffffffffffffffffffffffff1602179055506040820151816002015560608201518160030160006101000a81548173ffffffffffffffffffffffffffffffffffffffff021916908373ffffffffffffffffffffffffffffffffffffffff160217905550608082015181600401559050508373ffffffffffffffffffffffffffffffffffffffff166323b872dd3330866040518463ffffffff1660e01b81526004016112e99392919061196b565b600060405180830381600087803b15801561130357600080fd5b505af1158015611317573d6000803e3d6000fd5b5050505060016003600083815260200190815260200160002060006101000a81548160ff0219169083151502179055507f15e08890a381784a46f9cf108efd480131e1592a92249471d9c0ff26d2eed698818585338660405161137e959493929190611afc565b60405180910390a1506001600081905550505050565b61142a816040516024016113a891906119c4565b6040516020818303038152906040527f41304fac000000000000000000000000000000000000000000000000000000007bffffffffffffffffffffffffffffffffffffffffffffffffffffffff19166020820180517bffffffffffffffffffffffffffffffffffffffffffffffffffffffff83818316178352505050506114c6565b50565b6114c3816040516024016114419190611ae1565b6040516020818303038152906040527ff5b1bba9000000000000000000000000000000000000000000000000000000007bffffffffffffffffffffffffffffffffffffffffffffffffffffffff19166020820180517bffffffffffffffffffffffffffffffffffffffffffffffffffffffff83818316178352505050506114c6565b50565b60008151905060006a636f6e736f6c652e6c6f679050602083016000808483855afa5050505050565b6040518060a0016040528060008152602001600073ffffffffffffffffffffffffffffffffffffffff16815260200160008152602001600073ffffffffffffffffffffffffffffffffffffffff168152602001600081525090565b60008135905061155981611f67565b92915050565b60008151905061156e81611f7e565b92915050565b60008135905061158381611f95565b92915050565b60008151905061159881611f95565b92915050565b6000806000606084860312156115b357600080fd5b60006115c18682870161154a565b93505060206115d286828701611574565b92505060406115e386828701611574565b9150509250925092565b6000602082840312156115ff57600080fd5b600061160d8482850161155f565b91505092915050565b60006020828403121561162857600080fd5b600061163684828501611574565b91505092915050565b60006020828403121561165157600080fd5b600061165f84828501611589565b91505092915050565b60006116748383611839565b60a08301905092915050565b61168981611d01565b82525050565b61169881611cb9565b82525050565b6116a781611cb9565b82525050565b60006116b882611b5f565b6116c28185611b82565b93506116cd83611b4f565b8060005b838110156116fe5781516116e58882611668565b97506116f083611b75565b9250506001810190506116d1565b5085935050505092915050565b600061171682611b6a565b6117208185611b93565b9350611730818560208601611d37565b61173981611e11565b840191505092915050565b6000611751601983611b93565b915061175c82611e22565b602082019050919050565b6000611774601683611b93565b915061177f82611e4b565b602082019050919050565b6000611797601483611b93565b91506117a282611e74565b602082019050919050565b60006117ba602883611b93565b91506117c582611e9d565b604082019050919050565b60006117dd601d83611b93565b91506117e882611eec565b602082019050919050565b6000611800601f83611b93565b915061180b82611f15565b602082019050919050565b6000611823601083611b93565b915061182e82611f3e565b602082019050919050565b60a08201600082015161184f6000850182611909565b506020820151611862602085018261168f565b5060408201516118756040850182611909565b506060820151611888606085018261168f565b50608082015161189b6080850182611909565b50505050565b60a0820160008201516118b76000850182611909565b5060208201516118ca602085018261168f565b5060408201516118dd6040850182611909565b5060608201516118f0606085018261168f565b5060808201516119036080850182611909565b50505050565b61191281611cf7565b82525050565b61192181611cf7565b82525050565b600060208201905061193c600083018461169e565b92915050565b6000604082019050611957600083018561169e565b611964602083018461169e565b9392505050565b6000606082019050611980600083018661169e565b61198d602083018561169e565b61199a6040830184611918565b949350505050565b600060208201905081810360008301526119bc81846116ad565b905092915050565b600060208201905081810360008301526119de818461170b565b905092915050565b600060208201905081810360008301526119ff81611744565b9050919050565b60006020820190508181036000830152611a1f81611767565b9050919050565b60006020820190508181036000830152611a3f8161178a565b9050919050565b60006020820190508181036000830152611a5f816117ad565b9050919050565b60006020820190508181036000830152611a7f816117d0565b9050919050565b60006020820190508181036000830152611a9f816117f3565b9050919050565b60006020820190508181036000830152611abf81611816565b9050919050565b600060a082019050611adb60008301846118a1565b92915050565b6000602082019050611af66000830184611918565b92915050565b600060a082019050611b116000830188611918565b611b1e602083018761169e565b611b2b6040830186611918565b611b386060830185611680565b611b456080830184611918565b9695505050505050565b6000819050602082019050919050565b600081519050919050565b600081519050919050565b6000602082019050919050565b600082825260208201905092915050565b600082825260208201905092915050565b6000611baf82611cf7565b9150611bba83611cf7565b9250827fffffffffffffffffffffffffffffffffffffffffffffffffffffffffffffffff03821115611bef57611bee611db3565b5b828201905092915050565b6000611c0582611cf7565b9150611c1083611cf7565b925082611c2057611c1f611de2565b5b828204905092915050565b6000611c3682611cf7565b9150611c4183611cf7565b9250817fffffffffffffffffffffffffffffffffffffffffffffffffffffffffffffffff0483118215151615611c7a57611c79611db3565b5b828202905092915050565b6000611c9082611cf7565b9150611c9b83611cf7565b925082821015611cae57611cad611db3565b5b828203905092915050565b6000611cc482611cd7565b9050919050565b60008115159050919050565b600073ffffffffffffffffffffffffffffffffffffffff82169050919050565b6000819050919050565b6000611d0c82611d13565b9050919050565b6000611d1e82611d25565b9050919050565b6000611d3082611cd7565b9050919050565b60005b83811015611d55578082015181840152602081019050611d3a565b83811115611d64576000848401525b50505050565b6000611d7582611cf7565b91507fffffffffffffffffffffffffffffffffffffffffffffffffffffffffffffffff821415611da857611da7611db3565b5b600182019050919050565b7f4e487b7100000000000000000000000000000000000000000000000000000000600052601160045260246000fd5b7f4e487b7100000000000000000000000000000000000000000000000000000000600052601260045260246000fd5b6000601f19601f8301169050919050565b7f5072696365206d757374206265206d6f7265207468616e203000000000000000600082015250565b7f496e73756666696369656e7420616c6c6f77616e636500000000000000000000600082015250565b7f496e73756666696369656e742062616c616e6365000000000000000000000000600082015250565b7f796f752063616e6e6f74206275792074686973206974656d2c2074686973206960008201527f7320796f75722773000000000000000000000000000000000000000000000000602082015250565b7f43616e6e6f7420756e6c6973742c206e6f7420746865206f776e65722e000000600082015250565b7f5265656e7472616e637947756172643a207265656e7472616e742063616c6c00600082015250565b7f496e646578206e6f7420666f756e642e00000000000000000000000000000000600082015250565b611f7081611cb9565b8114611f7b57600080fd5b50565b611f8781611ccb565b8114611f9257600080fd5b50565b611f9e81611cf7565b8114611fa957600080fd5b5056fea2646970667358221220b24d3f3df5f29e56890ba0e4e1a73cd8419b832c002a3a1bc2791c0cdd9da4e364736f6c63430008040033",
  "linkReferences": {},
  "deployedLinkReferences": {}
}