{
  "_format": "hh-sol-artifact-1",
  "contractName": "NFT",
  "sourceName": "contracts/NFT.sol",
  "abi": [
    {
      "inputs": [
        {
          "internalType": "address",
          "name": "marketplaceAddress",
          "type": "address"
        }
      ],
      "stateMutability": "nonpayable",
      "type": "constructor"
    },
    {
      "anonymous": false,
      "inputs": [
        {
          "indexed": true,
          "internalType": "address",
          "name": "owner",
          "type": "address"
        },
        {
          "indexed": true,
          "internalType": "address",
          "name": "approved",
          "type": "address"
        },
        {
          "indexed": true,
          "internalType": "uint256",
          "name": "tokenId",
          "type": "uint256"
        }
      ],
      "name": "Approval",
      "type": "event"
    },
    {
      "anonymous": false,
      "inputs": [
        {
          "indexed": true,
          "internalType": "address",
          "name": "owner",
          "type": "address"
        },
        {
          "indexed": true,
          "internalType": "address",
          "name": "operator",
          "type": "address"
        },
        {
          "indexed": false,
          "internalType": "bool",
          "name": "approved",
          "type": "bool"
        }
      ],
      "name": "ApprovalForAll",
      "type": "event"
    },
    {
      "anonymous": false,
      "inputs": [
        {
          "indexed": true,
          "internalType": "address",
          "name": "from",
          "type": "address"
        },
        {
          "indexed": true,
          "internalType": "address",
          "name": "to",
          "type": "address"
        },
        {
          "indexed": true,
          "internalType": "uint256",
          "name": "tokenId",
          "type": "uint256"
        }
      ],
      "name": "Transfer",
      "type": "event"
    },
    {
      "inputs": [
        {
          "internalType": "address",
          "name": "to",
          "type": "address"
        },
        {
          "internalType": "uint256",
          "name": "tokenId",
          "type": "uint256"
        }
      ],
      "name": "approve",
      "outputs": [],
      "stateMutability": "nonpayable",
      "type": "function"
    },
    {
      "inputs": [
        {
          "internalType": "address",
          "name": "owner",
          "type": "address"
        }
      ],
      "name": "balanceOf",
      "outputs": [
        {
          "internalType": "uint256",
          "name": "",
          "type": "uint256"
        }
      ],
      "stateMutability": "view",
      "type": "function"
    },
    {
      "inputs": [
        {
          "internalType": "string",
          "name": "tokenURI",
          "type": "string"
        },
        {
          "internalType": "address",
          "name": "_txFeeToken",
          "type": "address"
        },
        {
          "internalType": "uint256",
          "name": "_txFeeAmount",
          "type": "uint256"
        }
      ],
      "name": "createToken",
      "outputs": [
        {
          "internalType": "uint256",
          "name": "",
          "type": "uint256"
        }
      ],
      "stateMutability": "nonpayable",
      "type": "function"
    },
    {
      "inputs": [],
      "name": "creator",
      "outputs": [
        {
          "internalType": "address",
          "name": "",
          "type": "address"
        }
      ],
      "stateMutability": "view",
      "type": "function"
    },
    {
      "inputs": [
        {
          "internalType": "address",
          "name": "",
          "type": "address"
        }
      ],
      "name": "excludedList",
      "outputs": [
        {
          "internalType": "bool",
          "name": "",
          "type": "bool"
        }
      ],
      "stateMutability": "view",
      "type": "function"
    },
    {
      "inputs": [
        {
          "internalType": "uint256",
          "name": "tokenId",
          "type": "uint256"
        }
      ],
      "name": "getApproved",
      "outputs": [
        {
          "internalType": "address",
          "name": "",
          "type": "address"
        }
      ],
      "stateMutability": "view",
      "type": "function"
    },
    {
      "inputs": [
        {
          "internalType": "address",
          "name": "owner",
          "type": "address"
        },
        {
          "internalType": "address",
          "name": "operator",
          "type": "address"
        }
      ],
      "name": "isApprovedForAll",
      "outputs": [
        {
          "internalType": "bool",
          "name": "",
          "type": "bool"
        }
      ],
      "stateMutability": "view",
      "type": "function"
    },
    {
      "inputs": [],
      "name": "name",
      "outputs": [
        {
          "internalType": "string",
          "name": "",
          "type": "string"
        }
      ],
      "stateMutability": "view",
      "type": "function"
    },
    {
      "inputs": [
        {
          "internalType": "uint256",
          "name": "tokenId",
          "type": "uint256"
        }
      ],
      "name": "ownerOf",
      "outputs": [
        {
          "internalType": "address",
          "name": "",
          "type": "address"
        }
      ],
      "stateMutability": "view",
      "type": "function"
    },
    {
      "inputs": [
        {
          "internalType": "address",
          "name": "_from",
          "type": "address"
        },
        {
          "internalType": "address",
          "name": "_to",
          "type": "address"
        },
        {
          "internalType": "uint256",
          "name": "_tokenId",
          "type": "uint256"
        }
      ],
      "name": "safeTransferFrom",
      "outputs": [],
      "stateMutability": "nonpayable",
      "type": "function"
    },
    {
      "inputs": [
        {
          "internalType": "address",
          "name": "_from",
          "type": "address"
        },
        {
          "internalType": "address",
          "name": "_to",
          "type": "address"
        },
        {
          "internalType": "uint256",
          "name": "_tokenId",
          "type": "uint256"
        },
        {
          "internalType": "bytes",
          "name": "_data",
          "type": "bytes"
        }
      ],
      "name": "safeTransferFrom",
      "outputs": [],
      "stateMutability": "nonpayable",
      "type": "function"
    },
    {
      "inputs": [
        {
          "internalType": "address",
          "name": "operator",
          "type": "address"
        },
        {
          "internalType": "bool",
          "name": "approved",
          "type": "bool"
        }
      ],
      "name": "setApprovalForAll",
      "outputs": [],
      "stateMutability": "nonpayable",
      "type": "function"
    },
    {
      "inputs": [
        {
          "internalType": "address",
          "name": "excluded",
          "type": "address"
        },
        {
          "internalType": "bool",
          "name": "status",
          "type": "bool"
        }
      ],
      "name": "setExcluded",
      "outputs": [],
      "stateMutability": "nonpayable",
      "type": "function"
    },
    {
      "inputs": [
        {
          "internalType": "bytes4",
          "name": "interfaceId",
          "type": "bytes4"
        }
      ],
      "name": "supportsInterface",
      "outputs": [
        {
          "internalType": "bool",
          "name": "",
          "type": "bool"
        }
      ],
      "stateMutability": "view",
      "type": "function"
    },
    {
      "inputs": [],
      "name": "symbol",
      "outputs": [
        {
          "internalType": "string",
          "name": "",
          "type": "string"
        }
      ],
      "stateMutability": "view",
      "type": "function"
    },
    {
      "inputs": [
        {
          "internalType": "uint256",
          "name": "tokenId",
          "type": "uint256"
        }
      ],
      "name": "tokenURI",
      "outputs": [
        {
          "internalType": "string",
          "name": "",
          "type": "string"
        }
      ],
      "stateMutability": "view",
      "type": "function"
    },
    {
      "inputs": [
        {
          "internalType": "address",
          "name": "from",
          "type": "address"
        },
        {
          "internalType": "address",
          "name": "to",
          "type": "address"
        },
        {
          "internalType": "uint256",
          "name": "tokenId",
          "type": "uint256"
        }
      ],
      "name": "transferFrom",
      "outputs": [],
      "stateMutability": "nonpayable",
      "type": "function"
    },
    {
      "inputs": [],
      "name": "txFeeAmount",
      "outputs": [
        {
          "internalType": "uint256",
          "name": "",
          "type": "uint256"
        }
      ],
      "stateMutability": "view",
      "type": "function"
    },
    {
      "inputs": [],
      "name": "txFeeToken",
      "outputs": [
        {
          "internalType": "address",
          "name": "",
          "type": "address"
        }
      ],
      "stateMutability": "view",
      "type": "function"
    }
  ],
  "bytecode": "0x60806040523480156200001157600080fd5b5060405162003412380380620034128339818101604052810190620000379190620001ee565b6040518060400160405280600e81526020017f6d65726361646f20546f6b656e730000000000000000000000000000000000008152506040518060400160405280600a81526020017f6d65726361646f4e4654000000000000000000000000000000000000000000008152508160009080519060200190620000bb92919062000127565b508060019080519060200190620000d492919062000127565b50505080600860006101000a81548173ffffffffffffffffffffffffffffffffffffffff021916908373ffffffffffffffffffffffffffffffffffffffff160217905550600060078190555050620002cd565b82805462000135906200024e565b90600052602060002090601f016020900481019282620001595760008555620001a5565b82601f106200017457805160ff1916838001178555620001a5565b82800160010185558215620001a5579182015b82811115620001a457825182559160200191906001019062000187565b5b509050620001b49190620001b8565b5090565b5b80821115620001d3576000816000905550600101620001b9565b5090565b600081519050620001e881620002b3565b92915050565b6000602082840312156200020157600080fd5b60006200021184828501620001d7565b91505092915050565b600062000227826200022e565b9050919050565b600073ffffffffffffffffffffffffffffffffffffffff82169050919050565b600060028204905060018216806200026757607f821691505b602082108114156200027e576200027d62000284565b5b50919050565b7f4e487b7100000000000000000000000000000000000000000000000000000000600052602260045260246000fd5b620002be816200021a565b8114620002ca57600080fd5b50565b61313580620002dd6000396000f3fe608060405234801561001057600080fd5b50600436106101215760003560e01c80636352211e116100ad57806395d89b411161007157806395d89b411461032e578063a22cb4651461034c578063b88d4fde14610368578063c87b56dd14610384578063e985e9c5146103b457610121565b80636352211e1461026257806370a082311461029257806373b4df05146102c257806377c567a7146102f25780638fbceaad1461031057610121565b8063095ea7b3116100f4578063095ea7b3146101c257806323b872dd146101de5780632836be24146101fa57806342842e0e146102165780635600d2fa1461023257610121565b806301ffc9a71461012657806302d05d3f1461015657806306fdde0314610174578063081812fc14610192575b600080fd5b610140600480360381019061013b91906120d8565b6103e4565b60405161014d919061259f565b60405180910390f35b61015e6104c6565b60405161016b9190612501565b60405180910390f35b61017c6104ec565b60405161018991906125ba565b60405180910390f35b6101ac60048036038101906101a79190612191565b61057e565b6040516101b99190612501565b60405180910390f35b6101dc60048036038101906101d79190612073565b610603565b005b6101f860048036038101906101f39190611f6d565b61071b565b005b610214600480360381019061020f9190612037565b61077b565b005b610230600480360381019061022b9190611f6d565b610866565b005b61024c60048036038101906102479190611f08565b6108e9565b604051610259919061259f565b60405180910390f35b61027c60048036038101906102779190612191565b610909565b6040516102899190612501565b60405180910390f35b6102ac60048036038101906102a79190611f08565b6109bb565b6040516102b991906127fc565b60405180910390f35b6102dc60048036038101906102d7919061212a565b610a73565b6040516102e991906127fc565b60405180910390f35b6102fa610bc3565b6040516103079190612501565b60405180910390f35b610318610be9565b60405161032591906127fc565b60405180910390f35b610336610bef565b60405161034391906125ba565b60405180910390f35b61036660048036038101906103619190612037565b610c81565b005b610382600480360381019061037d9190611fbc565b610c97565b005b61039e60048036038101906103999190612191565b610d5c565b6040516103ab91906125ba565b60405180910390f35b6103ce60048036038101906103c99190611f31565b610eae565b6040516103db919061259f565b60405180910390f35b60007f80ac58cd000000000000000000000000000000000000000000000000000000007bffffffffffffffffffffffffffffffffffffffffffffffffffffffff1916827bffffffffffffffffffffffffffffffffffffffffffffffffffffffff191614806104af57507f5b5e139f000000000000000000000000000000000000000000000000000000007bffffffffffffffffffffffffffffffffffffffffffffffffffffffff1916827bffffffffffffffffffffffffffffffffffffffffffffffffffffffff1916145b806104bf57506104be82610f42565b5b9050919050565b600960009054906101000a900473ffffffffffffffffffffffffffffffffffffffff1681565b6060600080546104fb90612a52565b80601f016020809104026020016040519081016040528092919081815260200182805461052790612a52565b80156105745780601f1061054957610100808354040283529160200191610574565b820191906000526020600020905b81548152906001019060200180831161055757829003601f168201915b5050505050905090565b600061058982610fac565b6105c8576040517f08c379a00000000000000000000000000000000000000000000000000000000081526004016105bf9061273c565b60405180910390fd5b6004600083815260200190815260200160002060009054906101000a900473ffffffffffffffffffffffffffffffffffffffff169050919050565b600061060e82610909565b90508073ffffffffffffffffffffffffffffffffffffffff168373ffffffffffffffffffffffffffffffffffffffff16141561067f576040517f08c379a00000000000000000000000000000000000000000000000000000000081526004016106769061279c565b60405180910390fd5b8073ffffffffffffffffffffffffffffffffffffffff1661069e611018565b73ffffffffffffffffffffffffffffffffffffffff1614806106cd57506106cc816106c7611018565b610eae565b5b61070c576040517f08c379a00000000000000000000000000000000000000000000000000000000081526004016107039061267c565b60405180910390fd5b6107168383611020565b505050565b61072c610726611018565b826110d9565b61076b576040517f08c379a0000000000000000000000000000000000000000000000000000000008152600401610762906127bc565b60405180910390fd5b6107768383836111b7565b505050565b600960009054906101000a900473ffffffffffffffffffffffffffffffffffffffff1673ffffffffffffffffffffffffffffffffffffffff163373ffffffffffffffffffffffffffffffffffffffff161461080b576040517f08c379a0000000000000000000000000000000000000000000000000000000008152600401610802906127dc565b60405180910390fd5b80600c60008473ffffffffffffffffffffffffffffffffffffffff1673ffffffffffffffffffffffffffffffffffffffff16815260200190815260200160002060006101000a81548160ff0219169083151502179055505050565b60001515600c60008573ffffffffffffffffffffffffffffffffffffffff1673ffffffffffffffffffffffffffffffffffffffff16815260200190815260200160002060009054906101000a900460ff16151514156108c9576108c883611413565b5b6108e483838360405180602001604052806000815250610c97565b505050565b600c6020528060005260406000206000915054906101000a900460ff1681565b6000806002600084815260200190815260200160002060009054906101000a900473ffffffffffffffffffffffffffffffffffffffff169050600073ffffffffffffffffffffffffffffffffffffffff168173ffffffffffffffffffffffffffffffffffffffff1614156109b2576040517f08c379a00000000000000000000000000000000000000000000000000000000081526004016109a9906126bc565b60405180910390fd5b80915050919050565b60008073ffffffffffffffffffffffffffffffffffffffff168273ffffffffffffffffffffffffffffffffffffffff161415610a2c576040517f08c379a0000000000000000000000000000000000000000000000000000000008152600401610a239061269c565b60405180910390fd5b600360008373ffffffffffffffffffffffffffffffffffffffff1673ffffffffffffffffffffffffffffffffffffffff168152602001908152602001600020549050919050565b6000600160076000828254610a8891906128e1565b9250508190555033600960006101000a81548173ffffffffffffffffffffffffffffffffffffffff021916908373ffffffffffffffffffffffffffffffffffffffff16021790555082600a60006101000a81548173ffffffffffffffffffffffffffffffffffffffff021916908373ffffffffffffffffffffffffffffffffffffffff16021790555081600b819055506001600c60003373ffffffffffffffffffffffffffffffffffffffff1673ffffffffffffffffffffffffffffffffffffffff16815260200190815260200160002060006101000a81548160ff02191690831515021790555060006007549050610b8133826114f2565b610b8b81866116c0565b610bb8600860009054906101000a900473ffffffffffffffffffffffffffffffffffffffff166001610c81565b809150509392505050565b600a60009054906101000a900473ffffffffffffffffffffffffffffffffffffffff1681565b600b5481565b606060018054610bfe90612a52565b80601f0160208091040260200160405190810160405280929190818152602001828054610c2a90612a52565b8015610c775780601f10610c4c57610100808354040283529160200191610c77565b820191906000526020600020905b815481529060010190602001808311610c5a57829003601f168201915b5050505050905090565b610c93610c8c611018565b8383611734565b5050565b610ca8610ca2611018565b836110d9565b610ce7576040517f08c379a0000000000000000000000000000000000000000000000000000000008152600401610cde906127bc565b60405180910390fd5b60001515600c60008673ffffffffffffffffffffffffffffffffffffffff1673ffffffffffffffffffffffffffffffffffffffff16815260200190815260200160002060009054906101000a900460ff1615151415610d4a57610d4984611413565b5b610d56848484846118a1565b50505050565b6060610d6782610fac565b610da6576040517f08c379a0000000000000000000000000000000000000000000000000000000008152600401610d9d9061271c565b60405180910390fd5b6000600660008481526020019081526020016000208054610dc690612a52565b80601f0160208091040260200160405190810160405280929190818152602001828054610df290612a52565b8015610e3f5780601f10610e1457610100808354040283529160200191610e3f565b820191906000526020600020905b815481529060010190602001808311610e2257829003601f168201915b505050505090506000610e506118fd565b9050600081511415610e66578192505050610ea9565b600082511115610e9b578082604051602001610e839291906124dd565b60405160208183030381529060405292505050610ea9565b610ea484611914565b925050505b919050565b6000600560008473ffffffffffffffffffffffffffffffffffffffff1673ffffffffffffffffffffffffffffffffffffffff16815260200190815260200160002060008373ffffffffffffffffffffffffffffffffffffffff1673ffffffffffffffffffffffffffffffffffffffff16815260200190815260200160002060009054906101000a900460ff16905092915050565b60007f01ffc9a7000000000000000000000000000000000000000000000000000000007bffffffffffffffffffffffffffffffffffffffffffffffffffffffff1916827bffffffffffffffffffffffffffffffffffffffffffffffffffffffff1916149050919050565b60008073ffffffffffffffffffffffffffffffffffffffff166002600084815260200190815260200160002060009054906101000a900473ffffffffffffffffffffffffffffffffffffffff1673ffffffffffffffffffffffffffffffffffffffff1614159050919050565b600033905090565b816004600083815260200190815260200160002060006101000a81548173ffffffffffffffffffffffffffffffffffffffff021916908373ffffffffffffffffffffffffffffffffffffffff160217905550808273ffffffffffffffffffffffffffffffffffffffff1661109383610909565b73ffffffffffffffffffffffffffffffffffffffff167f8c5be1e5ebec7d5bd14f71427d1e84f3dd0314c0f7b2291e5b200ac8c7c3b92560405160405180910390a45050565b60006110e482610fac565b611123576040517f08c379a000000000000000000000000000000000000000000000000000000000815260040161111a9061265c565b60405180910390fd5b600061112e83610909565b90508073ffffffffffffffffffffffffffffffffffffffff168473ffffffffffffffffffffffffffffffffffffffff16148061119d57508373ffffffffffffffffffffffffffffffffffffffff166111858461057e565b73ffffffffffffffffffffffffffffffffffffffff16145b806111ae57506111ad8185610eae565b5b91505092915050565b8273ffffffffffffffffffffffffffffffffffffffff166111d782610909565b73ffffffffffffffffffffffffffffffffffffffff161461122d576040517f08c379a00000000000000000000000000000000000000000000000000000000081526004016112249061275c565b60405180910390fd5b600073ffffffffffffffffffffffffffffffffffffffff168273ffffffffffffffffffffffffffffffffffffffff16141561129d576040517f08c379a00000000000000000000000000000000000000000000000000000000081526004016112949061261c565b60405180910390fd5b6112a88383836119bb565b6112b3600082611020565b6001600360008573ffffffffffffffffffffffffffffffffffffffff1673ffffffffffffffffffffffffffffffffffffffff16815260200190815260200160002060008282546113039190612968565b925050819055506001600360008473ffffffffffffffffffffffffffffffffffffffff1673ffffffffffffffffffffffffffffffffffffffff168152602001908152602001600020600082825461135a91906128e1565b92505081905550816002600083815260200190815260200160002060006101000a81548173ffffffffffffffffffffffffffffffffffffffff021916908373ffffffffffffffffffffffffffffffffffffffff160217905550808273ffffffffffffffffffffffffffffffffffffffff168473ffffffffffffffffffffffffffffffffffffffff167fddf252ad1be2c89b69c2b068fc378daa952ba7f163c4a11628f55a4df523b3ef60405160405180910390a4505050565b6000600a60009054906101000a900473ffffffffffffffffffffffffffffffffffffffff1690508073ffffffffffffffffffffffffffffffffffffffff166323b872dd83600960009054906101000a900473ffffffffffffffffffffffffffffffffffffffff16600b546040518463ffffffff1660e01b815260040161149b9392919061251c565b602060405180830381600087803b1580156114b557600080fd5b505af11580156114c9573d6000803e3d6000fd5b505050506040513d601f19601f820116820180604052508101906114ed91906120af565b505050565b600073ffffffffffffffffffffffffffffffffffffffff168273ffffffffffffffffffffffffffffffffffffffff161415611562576040517f08c379a0000000000000000000000000000000000000000000000000000000008152600401611559906126fc565b60405180910390fd5b61156b81610fac565b156115ab576040517f08c379a00000000000000000000000000000000000000000000000000000000081526004016115a2906125fc565b60405180910390fd5b6115b7600083836119bb565b6001600360008473ffffffffffffffffffffffffffffffffffffffff1673ffffffffffffffffffffffffffffffffffffffff168152602001908152602001600020600082825461160791906128e1565b92505081905550816002600083815260200190815260200160002060006101000a81548173ffffffffffffffffffffffffffffffffffffffff021916908373ffffffffffffffffffffffffffffffffffffffff160217905550808273ffffffffffffffffffffffffffffffffffffffff16600073ffffffffffffffffffffffffffffffffffffffff167fddf252ad1be2c89b69c2b068fc378daa952ba7f163c4a11628f55a4df523b3ef60405160405180910390a45050565b6116c982610fac565b611708576040517f08c379a00000000000000000000000000000000000000000000000000000000081526004016116ff906126dc565b60405180910390fd5b8060066000848152602001908152602001600020908051906020019061172f929190611d17565b505050565b8173ffffffffffffffffffffffffffffffffffffffff168373ffffffffffffffffffffffffffffffffffffffff1614156117a3576040517f08c379a000000000000000000000000000000000000000000000000000000000815260040161179a9061263c565b60405180910390fd5b80600560008573ffffffffffffffffffffffffffffffffffffffff1673ffffffffffffffffffffffffffffffffffffffff16815260200190815260200160002060008473ffffffffffffffffffffffffffffffffffffffff1673ffffffffffffffffffffffffffffffffffffffff16815260200190815260200160002060006101000a81548160ff0219169083151502179055508173ffffffffffffffffffffffffffffffffffffffff168373ffffffffffffffffffffffffffffffffffffffff167f17307eab39ab6107e8899845ad3d59bd9653f200f220920489ca2b5937696c3183604051611894919061259f565b60405180910390a3505050565b6118ac8484846111b7565b6118b8848484846119c0565b6118f7576040517f08c379a00000000000000000000000000000000000000000000000000000000081526004016118ee906125dc565b60405180910390fd5b50505050565b606060405180602001604052806000815250905090565b606061191f82610fac565b61195e576040517f08c379a00000000000000000000000000000000000000000000000000000000081526004016119559061277c565b60405180910390fd5b60006119686118fd565b9050600081511161198857604051806020016040528060008152506119b3565b8061199284611b57565b6040516020016119a39291906124dd565b6040516020818303038152906040525b915050919050565b505050565b60006119e18473ffffffffffffffffffffffffffffffffffffffff16611d04565b15611b4a578373ffffffffffffffffffffffffffffffffffffffff1663150b7a02611a0a611018565b8786866040518563ffffffff1660e01b8152600401611a2c9493929190612553565b602060405180830381600087803b158015611a4657600080fd5b505af1925050508015611a7757506040513d601f19601f82011682018060405250810190611a749190612101565b60015b611afa573d8060008114611aa7576040519150601f19603f3d011682016040523d82523d6000602084013e611aac565b606091505b50600081511415611af2576040517f08c379a0000000000000000000000000000000000000000000000000000000008152600401611ae9906125dc565b60405180910390fd5b805181602001fd5b63150b7a0260e01b7bffffffffffffffffffffffffffffffffffffffffffffffffffffffff1916817bffffffffffffffffffffffffffffffffffffffffffffffffffffffff191614915050611b4f565b600190505b949350505050565b60606000821415611b9f576040518060400160405280600181526020017f30000000000000000000000000000000000000000000000000000000000000008152509050611cff565b600082905060005b60008214611bd1578080611bba90612ab5565b915050600a82611bca9190612937565b9150611ba7565b60008167ffffffffffffffff811115611c13577f4e487b7100000000000000000000000000000000000000000000000000000000600052604160045260246000fd5b6040519080825280601f01601f191660200182016040528015611c455781602001600182028036833780820191505090505b5090505b60008514611cf857600182611c5e9190612968565b9150600a85611c6d9190612afe565b6030611c7991906128e1565b60f81b818381518110611cb5577f4e487b7100000000000000000000000000000000000000000000000000000000600052603260045260246000fd5b60200101907effffffffffffffffffffffffffffffffffffffffffffffffffffffffffffff1916908160001a905350600a85611cf19190612937565b9450611c49565b8093505050505b919050565b600080823b905060008111915050919050565b828054611d2390612a52565b90600052602060002090601f016020900481019282611d455760008555611d8c565b82601f10611d5e57805160ff1916838001178555611d8c565b82800160010185558215611d8c579182015b82811115611d8b578251825591602001919060010190611d70565b5b509050611d999190611d9d565b5090565b5b80821115611db6576000816000905550600101611d9e565b5090565b6000611dcd611dc88461283c565b612817565b905082815260208101848484011115611de557600080fd5b611df0848285612a10565b509392505050565b6000611e0b611e068461286d565b612817565b905082815260208101848484011115611e2357600080fd5b611e2e848285612a10565b509392505050565b600081359050611e45816130a3565b92915050565b600081359050611e5a816130ba565b92915050565b600081519050611e6f816130ba565b92915050565b600081359050611e84816130d1565b92915050565b600081519050611e99816130d1565b92915050565b600082601f830112611eb057600080fd5b8135611ec0848260208601611dba565b91505092915050565b600082601f830112611eda57600080fd5b8135611eea848260208601611df8565b91505092915050565b600081359050611f02816130e8565b92915050565b600060208284031215611f1a57600080fd5b6000611f2884828501611e36565b91505092915050565b60008060408385031215611f4457600080fd5b6000611f5285828601611e36565b9250506020611f6385828601611e36565b9150509250929050565b600080600060608486031215611f8257600080fd5b6000611f9086828701611e36565b9350506020611fa186828701611e36565b9250506040611fb286828701611ef3565b9150509250925092565b60008060008060808587031215611fd257600080fd5b6000611fe087828801611e36565b9450506020611ff187828801611e36565b935050604061200287828801611ef3565b925050606085013567ffffffffffffffff81111561201f57600080fd5b61202b87828801611e9f565b91505092959194509250565b6000806040838503121561204a57600080fd5b600061205885828601611e36565b925050602061206985828601611e4b565b9150509250929050565b6000806040838503121561208657600080fd5b600061209485828601611e36565b92505060206120a585828601611ef3565b9150509250929050565b6000602082840312156120c157600080fd5b60006120cf84828501611e60565b91505092915050565b6000602082840312156120ea57600080fd5b60006120f884828501611e75565b91505092915050565b60006020828403121561211357600080fd5b600061212184828501611e8a565b91505092915050565b60008060006060848603121561213f57600080fd5b600084013567ffffffffffffffff81111561215957600080fd5b61216586828701611ec9565b935050602061217686828701611e36565b925050604061218786828701611ef3565b9150509250925092565b6000602082840312156121a357600080fd5b60006121b184828501611ef3565b91505092915050565b6121c38161299c565b82525050565b6121d2816129ae565b82525050565b60006121e38261289e565b6121ed81856128b4565b93506121fd818560208601612a1f565b61220681612beb565b840191505092915050565b600061221c826128a9565b61222681856128c5565b9350612236818560208601612a1f565b61223f81612beb565b840191505092915050565b6000612255826128a9565b61225f81856128d6565b935061226f818560208601612a1f565b80840191505092915050565b60006122886032836128c5565b915061229382612bfc565b604082019050919050565b60006122ab601c836128c5565b91506122b682612c4b565b602082019050919050565b60006122ce6024836128c5565b91506122d982612c74565b604082019050919050565b60006122f16019836128c5565b91506122fc82612cc3565b602082019050919050565b6000612314602c836128c5565b915061231f82612cec565b604082019050919050565b60006123376038836128c5565b915061234282612d3b565b604082019050919050565b600061235a602a836128c5565b915061236582612d8a565b604082019050919050565b600061237d6029836128c5565b915061238882612dd9565b604082019050919050565b60006123a0602e836128c5565b91506123ab82612e28565b604082019050919050565b60006123c36020836128c5565b91506123ce82612e77565b602082019050919050565b60006123e66031836128c5565b91506123f182612ea0565b604082019050919050565b6000612409602c836128c5565b915061241482612eef565b604082019050919050565b600061242c6029836128c5565b915061243782612f3e565b604082019050919050565b600061244f602f836128c5565b915061245a82612f8d565b604082019050919050565b60006124726021836128c5565b915061247d82612fdc565b604082019050919050565b60006124956031836128c5565b91506124a08261302b565b604082019050919050565b60006124b86010836128c5565b91506124c38261307a565b602082019050919050565b6124d781612a06565b82525050565b60006124e9828561224a565b91506124f5828461224a565b91508190509392505050565b600060208201905061251660008301846121ba565b92915050565b600060608201905061253160008301866121ba565b61253e60208301856121ba565b61254b60408301846124ce565b949350505050565b600060808201905061256860008301876121ba565b61257560208301866121ba565b61258260408301856124ce565b818103606083015261259481846121d8565b905095945050505050565b60006020820190506125b460008301846121c9565b92915050565b600060208201905081810360008301526125d48184612211565b905092915050565b600060208201905081810360008301526125f58161227b565b9050919050565b600060208201905081810360008301526126158161229e565b9050919050565b60006020820190508181036000830152612635816122c1565b9050919050565b60006020820190508181036000830152612655816122e4565b9050919050565b6000602082019050818103600083015261267581612307565b9050919050565b600060208201905081810360008301526126958161232a565b9050919050565b600060208201905081810360008301526126b58161234d565b9050919050565b600060208201905081810360008301526126d581612370565b9050919050565b600060208201905081810360008301526126f581612393565b9050919050565b60006020820190508181036000830152612715816123b6565b9050919050565b60006020820190508181036000830152612735816123d9565b9050919050565b60006020820190508181036000830152612755816123fc565b9050919050565b600060208201905081810360008301526127758161241f565b9050919050565b6000602082019050818103600083015261279581612442565b9050919050565b600060208201905081810360008301526127b581612465565b9050919050565b600060208201905081810360008301526127d581612488565b9050919050565b600060208201905081810360008301526127f5816124ab565b9050919050565b600060208201905061281160008301846124ce565b92915050565b6000612821612832565b905061282d8282612a84565b919050565b6000604051905090565b600067ffffffffffffffff82111561285757612856612bbc565b5b61286082612beb565b9050602081019050919050565b600067ffffffffffffffff82111561288857612887612bbc565b5b61289182612beb565b9050602081019050919050565b600081519050919050565b600081519050919050565b600082825260208201905092915050565b600082825260208201905092915050565b600081905092915050565b60006128ec82612a06565b91506128f783612a06565b9250827fffffffffffffffffffffffffffffffffffffffffffffffffffffffffffffffff0382111561292c5761292b612b2f565b5b828201905092915050565b600061294282612a06565b915061294d83612a06565b92508261295d5761295c612b5e565b5b828204905092915050565b600061297382612a06565b915061297e83612a06565b92508282101561299157612990612b2f565b5b828203905092915050565b60006129a7826129e6565b9050919050565b60008115159050919050565b60007fffffffff0000000000000000000000000000000000000000000000000000000082169050919050565b600073ffffffffffffffffffffffffffffffffffffffff82169050919050565b6000819050919050565b82818337600083830152505050565b60005b83811015612a3d578082015181840152602081019050612a22565b83811115612a4c576000848401525b50505050565b60006002820490506001821680612a6a57607f821691505b60208210811415612a7e57612a7d612b8d565b5b50919050565b612a8d82612beb565b810181811067ffffffffffffffff82111715612aac57612aab612bbc565b5b80604052505050565b6000612ac082612a06565b91507fffffffffffffffffffffffffffffffffffffffffffffffffffffffffffffffff821415612af357612af2612b2f565b5b600182019050919050565b6000612b0982612a06565b9150612b1483612a06565b925082612b2457612b23612b5e565b5b828206905092915050565b7f4e487b7100000000000000000000000000000000000000000000000000000000600052601160045260246000fd5b7f4e487b7100000000000000000000000000000000000000000000000000000000600052601260045260246000fd5b7f4e487b7100000000000000000000000000000000000000000000000000000000600052602260045260246000fd5b7f4e487b7100000000000000000000000000000000000000000000000000000000600052604160045260246000fd5b6000601f19601f8301169050919050565b7f4552433732313a207472616e7366657220746f206e6f6e20455243373231526560008201527f63656976657220696d706c656d656e7465720000000000000000000000000000602082015250565b7f4552433732313a20746f6b656e20616c7265616479206d696e74656400000000600082015250565b7f4552433732313a207472616e7366657220746f20746865207a65726f2061646460008201527f7265737300000000000000000000000000000000000000000000000000000000602082015250565b7f4552433732313a20617070726f766520746f2063616c6c657200000000000000600082015250565b7f4552433732313a206f70657261746f7220717565727920666f72206e6f6e657860008201527f697374656e7420746f6b656e0000000000000000000000000000000000000000602082015250565b7f4552433732313a20617070726f76652063616c6c6572206973206e6f74206f7760008201527f6e6572206e6f7220617070726f76656420666f7220616c6c0000000000000000602082015250565b7f4552433732313a2062616c616e636520717565727920666f7220746865207a6560008201527f726f206164647265737300000000000000000000000000000000000000000000602082015250565b7f4552433732313a206f776e657220717565727920666f72206e6f6e657869737460008201527f656e7420746f6b656e0000000000000000000000000000000000000000000000602082015250565b7f45524337323155524953746f726167653a2055524920736574206f66206e6f6e60008201527f6578697374656e7420746f6b656e000000000000000000000000000000000000602082015250565b7f4552433732313a206d696e7420746f20746865207a65726f2061646472657373600082015250565b7f45524337323155524953746f726167653a2055524920717565727920666f722060008201527f6e6f6e6578697374656e7420746f6b656e000000000000000000000000000000602082015250565b7f4552433732313a20617070726f76656420717565727920666f72206e6f6e657860008201527f697374656e7420746f6b656e0000000000000000000000000000000000000000602082015250565b7f4552433732313a207472616e73666572206f6620746f6b656e2074686174206960008201527f73206e6f74206f776e0000000000000000000000000000000000000000000000602082015250565b7f4552433732314d657461646174613a2055524920717565727920666f72206e6f60008201527f6e6578697374656e7420746f6b656e0000000000000000000000000000000000602082015250565b7f4552433732313a20617070726f76616c20746f2063757272656e74206f776e6560008201527f7200000000000000000000000000000000000000000000000000000000000000602082015250565b7f4552433732313a207472616e736665722063616c6c6572206973206e6f74206f60008201527f776e6572206e6f7220617070726f766564000000000000000000000000000000602082015250565b7f6f6e6c79207468652063726561746f7200000000000000000000000000000000600082015250565b6130ac8161299c565b81146130b757600080fd5b50565b6130c3816129ae565b81146130ce57600080fd5b50565b6130da816129ba565b81146130e557600080fd5b50565b6130f181612a06565b81146130fc57600080fd5b5056fea26469706673582212201ec65458d1e4248c15a543d588e366d1e0a7f8a2230ce0b3dcc2f37475b43b3764736f6c63430008040033",
  "linkReferences": {},
  "deployedLinkReferences": {}
}